{
  "_format": "hh-sol-artifact-1",
  "contractName": "Marygoroundhourtest",
  "sourceName": "contracts/Marygoroundhourtest.sol",
  "abi": [
    {
      "inputs": [],
      "stateMutability": "nonpayable",
      "type": "constructor"
    },
    {
      "anonymous": false,
      "inputs": [
        {
          "indexed": false,
          "internalType": "address",
          "name": "_to",
          "type": "address"
        },
        {
          "indexed": false,
          "internalType": "uint256",
          "name": "_amount",
          "type": "uint256"
        }
      ],
      "name": "GivenLoan",
      "type": "event"
    },
    {
      "anonymous": false,
      "inputs": [
        {
          "indexed": true,
          "internalType": "address",
          "name": "member",
          "type": "address"
        },
        {
          "indexed": false,
          "internalType": "uint256",
          "name": "amountPaid",
          "type": "uint256"
        }
      ],
      "name": "LoanRepaid",
      "type": "event"
    },
    {
      "anonymous": false,
      "inputs": [
        {
          "indexed": false,
          "internalType": "address",
          "name": "_member",
          "type": "address"
        }
      ],
      "name": "MemberAdded",
      "type": "event"
    },
    {
      "anonymous": false,
      "inputs": [
        {
          "indexed": true,
          "internalType": "address",
          "name": "member",
          "type": "address"
        }
      ],
      "name": "MemberRemoved",
      "type": "event"
    },
    {
      "anonymous": false,
      "inputs": [
        {
          "indexed": true,
          "internalType": "address",
          "name": "_to",
          "type": "address"
        },
        {
          "indexed": false,
          "internalType": "uint256",
          "name": "amount",
          "type": "uint256"
        }
      ],
      "name": "PayoutMade",
      "type": "event"
    },
    {
      "anonymous": false,
      "inputs": [
        {
          "indexed": true,
          "internalType": "address",
          "name": "_from",
          "type": "address"
        },
        {
          "indexed": false,
          "internalType": "uint256",
          "name": "_amount",
          "type": "uint256"
        }
      ],
      "name": "SaveAdded",
      "type": "event"
    },
    {
      "inputs": [],
      "name": "AllSavingsAndLoans",
      "outputs": [
        {
          "internalType": "uint256",
          "name": "totalSaved",
          "type": "uint256"
        },
        {
          "internalType": "uint256",
          "name": "totalLoanedOut",
          "type": "uint256"
        },
        {
          "internalType": "uint256",
          "name": "availableFunds",
          "type": "uint256"
        }
      ],
      "stateMutability": "view",
      "type": "function"
    },
    {
      "inputs": [],
      "name": "MySavingsAndLoan",
      "outputs": [
        {
          "internalType": "uint256",
          "name": "savings",
          "type": "uint256"
        },
        {
          "internalType": "uint256",
          "name": "loan",
          "type": "uint256"
        },
        {
          "internalType": "uint256",
          "name": "lastLoanTime",
          "type": "uint256"
        }
      ],
      "stateMutability": "view",
      "type": "function"
    },
    {
      "inputs": [
        {
          "internalType": "address",
          "name": "_member",
          "type": "address"
        }
      ],
      "name": "addMember",
      "outputs": [],
      "stateMutability": "nonpayable",
      "type": "function"
    },
    {
      "inputs": [],
      "name": "contractStartTime",
      "outputs": [
        {
          "internalType": "uint256",
          "name": "",
          "type": "uint256"
        }
      ],
      "stateMutability": "view",
      "type": "function"
    },
    {
      "inputs": [],
      "name": "distributeFunds",
      "outputs": [],
      "stateMutability": "nonpayable",
      "type": "function"
    },
    {
      "inputs": [
        {
          "internalType": "uint256",
          "name": "",
          "type": "uint256"
        }
      ],
      "name": "memberList",
      "outputs": [
        {
          "internalType": "address",
          "name": "",
          "type": "address"
        }
      ],
      "stateMutability": "view",
      "type": "function"
    },
    {
      "inputs": [
        {
          "internalType": "address",
          "name": "",
          "type": "address"
        }
      ],
      "name": "members",
      "outputs": [
        {
          "internalType": "bool",
          "name": "isMember",
          "type": "bool"
        },
        {
          "internalType": "uint256",
          "name": "totalSavings",
          "type": "uint256"
        },
        {
          "internalType": "uint256",
          "name": "loanAmount",
          "type": "uint256"
        },
        {
          "internalType": "uint256",
          "name": "lastLoanTimestamp",
          "type": "uint256"
        }
      ],
      "stateMutability": "view",
      "type": "function"
    },
    {
      "inputs": [],
      "name": "owner",
      "outputs": [
        {
          "internalType": "address",
          "name": "",
          "type": "address"
        }
      ],
      "stateMutability": "view",
      "type": "function"
    },
    {
      "inputs": [],
      "name": "repayLoan",
      "outputs": [],
      "stateMutability": "payable",
      "type": "function"
    },
    {
      "inputs": [
        {
          "internalType": "uint256",
          "name": "_amount",
          "type": "uint256"
        }
      ],
      "name": "requestLoan",
      "outputs": [],
      "stateMutability": "nonpayable",
      "type": "function"
    },
    {
      "inputs": [],
      "name": "save",
      "outputs": [],
      "stateMutability": "payable",
      "type": "function"
    },
    {
      "inputs": [],
      "name": "totalLoaned",
      "outputs": [
        {
          "internalType": "uint256",
          "name": "",
          "type": "uint256"
        }
      ],
      "stateMutability": "view",
      "type": "function"
    },
    {
      "inputs": [],
      "name": "totalSavings",
      "outputs": [
        {
          "internalType": "uint256",
          "name": "",
          "type": "uint256"
        }
      ],
      "stateMutability": "view",
      "type": "function"
    }
  ],
  "bytecode": "0x6080604052348015600f57600080fd5b50336000806101000a81548173ffffffffffffffffffffffffffffffffffffffff021916908373ffffffffffffffffffffffffffffffffffffffff16021790555042600181905550611c69806100666000396000f3fe6080604052600436106100c25760003560e01c80638d5d34291161007f578063b307fc6d11610059578063b307fc6d1461022a578063bdbc894114610267578063ca6d56dc14610294578063f966ade7146102bd576100c2565b80638d5d3429146101ab5780638da5cb5b146101d45780639bf42b3f146101ff576100c2565b806308ae4b0c146100c75780630c3d5157146101075780633a6a4d2e146101325780633a838c2a1461014957806342dad49e14610174578063753eb4921461017e575b600080fd5b3480156100d357600080fd5b506100ee60048036038101906100e99190611394565b6102c7565b6040516100fe94939291906113f5565b60405180910390f35b34801561011357600080fd5b5061011c610304565b604051610129919061143a565b60405180910390f35b34801561013e57600080fd5b5061014761030a565b005b34801561015557600080fd5b5061015e610666565b60405161016b919061143a565b60405180910390f35b61017c61066c565b005b34801561018a57600080fd5b50610193610800565b6040516101a293929190611455565b60405180910390f35b3480156101b757600080fd5b506101d260048036038101906101cd91906114b8565b6108b5565b005b3480156101e057600080fd5b506101e9610c4e565b6040516101f691906114f4565b60405180910390f35b34801561020b57600080fd5b50610214610c72565b604051610221919061143a565b60405180910390f35b34801561023657600080fd5b50610251600480360381019061024c91906114b8565b610c78565b60405161025e91906114f4565b60405180910390f35b34801561027357600080fd5b5061027c610cb7565b60405161028b93929190611455565b60405180910390f35b3480156102a057600080fd5b506102bb60048036038101906102b69190611394565b610da9565b005b6102c5610fbf565b005b60046020528060005260406000206000915090508060000160009054906101000a900460ff16908060010154908060020154908060030154905084565b60015481565b600460003373ffffffffffffffffffffffffffffffffffffffff1673ffffffffffffffffffffffffffffffffffffffff16815260200190815260200160002060000160009054906101000a900460ff16610399576040517f08c379a000000000000000000000000000000000000000000000000000000000815260040161039090611592565b60405180910390fd5b610e106001546103a991906115e1565b4210156103eb576040517f08c379a00000000000000000000000000000000000000000000000000000000081526004016103e290611661565b60405180910390fd5b600060025411610430576040517f08c379a0000000000000000000000000000000000000000000000000000000008152600401610427906116cd565b60405180910390fd5b6000479050600080600254831115610453576002548361045091906116ed565b91505b82600254111561046e578260025461046b91906116ed565b90505b60005b6005805490508110156106595760006005828154811061049457610493611721565b5b9060005260206000200160009054906101000a900473ffffffffffffffffffffffffffffffffffffffff169050600460008273ffffffffffffffffffffffffffffffffffffffff1673ffffffffffffffffffffffffffffffffffffffff16815260200190815260200160002060000160009054906101000a900460ff161561064b57600060025486600460008573ffffffffffffffffffffffffffffffffffffffff1673ffffffffffffffffffffffffffffffffffffffff168152602001908152602001600020600101546105699190611750565b61057391906117c1565b905060008411801561058a57506000600580549050115b156105b4576000600580549050856105a291906117c1565b905080826105b091906116ed565b9150505b8173ffffffffffffffffffffffffffffffffffffffff166108fc829081150290604051600060405180830381858888f193505050501580156105fa573d6000803e3d6000fd5b508173ffffffffffffffffffffffffffffffffffffffff167f2bed35e613015f08bbd30cc8e5d2dae98b3ecbbd740b3fc8f8ae6f25f4e3c71382604051610641919061143a565b60405180910390a2505b508080600101915050610471565b5042600181905550505050565b60035481565b600460003373ffffffffffffffffffffffffffffffffffffffff1673ffffffffffffffffffffffffffffffffffffffff16815260200190815260200160002060000160009054906101000a900460ff166106fb576040517f08c379a00000000000000000000000000000000000000000000000000000000081526004016106f290611592565b60405180910390fd5b6000341161073e576040517f08c379a00000000000000000000000000000000000000000000000000000000081526004016107359061183e565b60405180910390fd5b34600460003373ffffffffffffffffffffffffffffffffffffffff1673ffffffffffffffffffffffffffffffffffffffff168152602001908152602001600020600101600082825461079091906115e1565b9250508190555034600260008282546107a991906115e1565b925050819055503373ffffffffffffffffffffffffffffffffffffffff167f7859c92cec196429f3d0509ce9c3179eba1b85adac2a2dd1bef58b0c1d430994346040516107f6919061143a565b60405180910390a2565b6000806000600460003373ffffffffffffffffffffffffffffffffffffffff1673ffffffffffffffffffffffffffffffffffffffff16815260200190815260200160002060000160009054906101000a900460ff16610894576040517f08c379a000000000000000000000000000000000000000000000000000000000815260040161088b90611592565b60405180910390fd5b6002546003546003546002546108aa91906116ed565b925092509250909192565b600460003373ffffffffffffffffffffffffffffffffffffffff1673ffffffffffffffffffffffffffffffffffffffff16815260200190815260200160002060000160009054906101000a900460ff16610944576040517f08c379a000000000000000000000000000000000000000000000000000000000815260040161093b90611592565b60405180910390fd5b6000600460003373ffffffffffffffffffffffffffffffffffffffff1673ffffffffffffffffffffffffffffffffffffffff16815260200190815260200160002060020154146109c9576040517f08c379a00000000000000000000000000000000000000000000000000000000081526004016109c0906118d0565b60405180910390fd5b6000600460003373ffffffffffffffffffffffffffffffffffffffff1673ffffffffffffffffffffffffffffffffffffffff1681526020019081526020016000206001015411610a4e576040517f08c379a0000000000000000000000000000000000000000000000000000000008152600401610a459061193c565b60405180910390fd5b6002600460003373ffffffffffffffffffffffffffffffffffffffff1673ffffffffffffffffffffffffffffffffffffffff16815260200190815260200160002060010154610a9d9190611750565b811115610adf576040517f08c379a0000000000000000000000000000000000000000000000000000000008152600401610ad6906119a8565b60405180910390fd5b600254811115610b24576040517f08c379a0000000000000000000000000000000000000000000000000000000008152600401610b1b90611a14565b60405180910390fd5b80600460003373ffffffffffffffffffffffffffffffffffffffff1673ffffffffffffffffffffffffffffffffffffffff1681526020019081526020016000206002018190555042600460003373ffffffffffffffffffffffffffffffffffffffff1673ffffffffffffffffffffffffffffffffffffffff168152602001908152602001600020600301819055508060036000828254610bc491906115e1565b925050819055503373ffffffffffffffffffffffffffffffffffffffff166108fc829081150290604051600060405180830381858888f19350505050158015610c11573d6000803e3d6000fd5b507f9a62cf908b3c511c4b6d312a1bdc30574df2c858a52de6470d3ccf85f7016eca3382604051610c43929190611a34565b60405180910390a150565b60008054906101000a900473ffffffffffffffffffffffffffffffffffffffff1681565b60025481565b60058181548110610c8857600080fd5b906000526020600020016000915054906101000a900473ffffffffffffffffffffffffffffffffffffffff1681565b6000806000600460003373ffffffffffffffffffffffffffffffffffffffff1673ffffffffffffffffffffffffffffffffffffffff16815260200190815260200160002060000160009054906101000a900460ff16610d4b576040517f08c379a0000000000000000000000000000000000000000000000000000000008152600401610d4290611592565b60405180910390fd5b6000600460003373ffffffffffffffffffffffffffffffffffffffff1673ffffffffffffffffffffffffffffffffffffffff168152602001908152602001600020905080600101548160020154826003015493509350935050909192565b60008054906101000a900473ffffffffffffffffffffffffffffffffffffffff1673ffffffffffffffffffffffffffffffffffffffff163373ffffffffffffffffffffffffffffffffffffffff1614610e37576040517f08c379a0000000000000000000000000000000000000000000000000000000008152600401610e2e90611acf565b60405180910390fd5b600460008273ffffffffffffffffffffffffffffffffffffffff1673ffffffffffffffffffffffffffffffffffffffff16815260200190815260200160002060000160009054906101000a900460ff1615610ec7576040517f08c379a0000000000000000000000000000000000000000000000000000000008152600401610ebe90611b3b565b60405180910390fd5b6001600460008373ffffffffffffffffffffffffffffffffffffffff1673ffffffffffffffffffffffffffffffffffffffff16815260200190815260200160002060000160006101000a81548160ff0219169083151502179055506005819080600181540180825580915050600190039060005260206000200160009091909190916101000a81548173ffffffffffffffffffffffffffffffffffffffff021916908373ffffffffffffffffffffffffffffffffffffffff1602179055507fb251eb052afc73ffd02ffe85ad79990a8b3fed60d76dbc2fa2fdd7123dffd91481604051610fb491906114f4565b60405180910390a150565b600460003373ffffffffffffffffffffffffffffffffffffffff1673ffffffffffffffffffffffffffffffffffffffff16815260200190815260200160002060000160009054906101000a900460ff1661104e576040517f08c379a000000000000000000000000000000000000000000000000000000000815260040161104590611592565b60405180910390fd5b6000600460003373ffffffffffffffffffffffffffffffffffffffff1673ffffffffffffffffffffffffffffffffffffffff168152602001908152602001600020905060008160020154116110d8576040517f08c379a00000000000000000000000000000000000000000000000000000000081526004016110cf90611ba7565b60405180910390fd5b6000603c8260030154426110ec91906116ed565b6110f691906117c1565b90506000603c82101561117e57600a821161111457600a9050611179565b600a82118015611125575060148211155b156111335760149050611178565b6014821180156111445750601e8211155b1561115257601e9050611177565b601e82118015611163575060288211155b156111715760289050611176565b603290505b5b5b5b611183565b606490505b6000606482606461119491906115e1565b85600201546111a39190611750565b6111ad91906117c1565b9050803410156111f2576040517f08c379a00000000000000000000000000000000000000000000000000000000081526004016111e990611c13565b60405180910390fd5b83600201546003600082825461120891906116ed565b9250508190555060008460020181905550600084600301819055503373ffffffffffffffffffffffffffffffffffffffff167fc200a1f31dd659e356e0f112c82558e25f49f7b0f84438691cd96f5cb355882382604051611269919061143a565b60405180910390a2603c831061132b57600460003373ffffffffffffffffffffffffffffffffffffffff1673ffffffffffffffffffffffffffffffffffffffff168152602001908152602001600020600080820160006101000a81549060ff021916905560018201600090556002820160009055600382016000905550503373ffffffffffffffffffffffffffffffffffffffff167f6e76fb4c77256006d9c38ec7d82b45a8c8f3c27b1d6766fffc42dfb8de68449260405160405180910390a25b50505050565b600080fd5b600073ffffffffffffffffffffffffffffffffffffffff82169050919050565b600061136182611336565b9050919050565b61137181611356565b811461137c57600080fd5b50565b60008135905061138e81611368565b92915050565b6000602082840312156113aa576113a9611331565b5b60006113b88482850161137f565b91505092915050565b60008115159050919050565b6113d6816113c1565b82525050565b6000819050919050565b6113ef816113dc565b82525050565b600060808201905061140a60008301876113cd565b61141760208301866113e6565b61142460408301856113e6565b61143160608301846113e6565b95945050505050565b600060208201905061144f60008301846113e6565b92915050565b600060608201905061146a60008301866113e6565b61147760208301856113e6565b61148460408301846113e6565b949350505050565b611495816113dc565b81146114a057600080fd5b50565b6000813590506114b28161148c565b92915050565b6000602082840312156114ce576114cd611331565b5b60006114dc848285016114a3565b91505092915050565b6114ee81611356565b82525050565b600060208201905061150960008301846114e5565b92915050565b600082825260208201905092915050565b7f4f6e6c79206d656d6265722063616e20706572666f726d20746869732061637460008201527f696f6e0000000000000000000000000000000000000000000000000000000000602082015250565b600061157c60238361150f565b915061158782611520565b604082019050919050565b600060208201905081810360008301526115ab8161156f565b9050919050565b7f4e487b7100000000000000000000000000000000000000000000000000000000600052601160045260246000fd5b60006115ec826113dc565b91506115f7836113dc565b925082820190508082111561160f5761160e6115b2565b5b92915050565b7f3120686f7572206e6f7420636f6d706c65746564000000000000000000000000600082015250565b600061164b60148361150f565b915061165682611615565b602082019050919050565b6000602082019050818103600083015261167a8161163e565b9050919050565b7f4e6f20736176696e677320746f20646973747269627574650000000000000000600082015250565b60006116b760188361150f565b91506116c282611681565b602082019050919050565b600060208201905081810360008301526116e6816116aa565b9050919050565b60006116f8826113dc565b9150611703836113dc565b925082820390508181111561171b5761171a6115b2565b5b92915050565b7f4e487b7100000000000000000000000000000000000000000000000000000000600052603260045260246000fd5b600061175b826113dc565b9150611766836113dc565b9250828202611774816113dc565b9150828204841483151761178b5761178a6115b2565b5b5092915050565b7f4e487b7100000000000000000000000000000000000000000000000000000000600052601260045260246000fd5b60006117cc826113dc565b91506117d7836113dc565b9250826117e7576117e6611792565b5b828204905092915050565b7f4d757374206465706f73697420736f6d65204554480000000000000000000000600082015250565b600061182860158361150f565b9150611833826117f2565b602082019050919050565b600060208201905081810360008301526118578161181b565b9050919050565b7f4578697374696e67206c6f616e206d757374206265207265706169642066697260008201527f7374000000000000000000000000000000000000000000000000000000000000602082015250565b60006118ba60228361150f565b91506118c58261185e565b604082019050919050565b600060208201905081810360008301526118e9816118ad565b9050919050565b7f4e6f20736176696e677320617661696c61626c65000000000000000000000000600082015250565b600061192660148361150f565b9150611931826118f0565b602082019050919050565b6000602082019050818103600083015261195581611919565b9050919050565b7f4c6f616e206578636565647320616c6c6f776564206c696d6974000000000000600082015250565b6000611992601a8361150f565b915061199d8261195c565b602082019050919050565b600060208201905081810360008301526119c181611985565b9050919050565b7f4e6f2073756666696369656e742066756e647320617661696c61626c65000000600082015250565b60006119fe601d8361150f565b9150611a09826119c8565b602082019050919050565b60006020820190508181036000830152611a2d816119f1565b9050919050565b6000604082019050611a4960008301856114e5565b611a5660208301846113e6565b9392505050565b7f4f6e6c79206f776e65722063616e20706572666f726d2074686973206163746960008201527f6f6e000000000000000000000000000000000000000000000000000000000000602082015250565b6000611ab960228361150f565b9150611ac482611a5d565b604082019050919050565b60006020820190508181036000830152611ae881611aac565b9050919050565b7f4d656d62657220616c7265616479206578697374730000000000000000000000600082015250565b6000611b2560158361150f565b9150611b3082611aef565b602082019050919050565b60006020820190508181036000830152611b5481611b18565b9050919050565b7f4e6f20616374697665206c6f616e000000000000000000000000000000000000600082015250565b6000611b91600e8361150f565b9150611b9c82611b5b565b602082019050919050565b60006020820190508181036000830152611bc081611b84565b9050919050565b7f496e73756666696369656e742072657061796d656e7420616d6f756e74000000600082015250565b6000611bfd601d8361150f565b9150611c0882611bc7565b602082019050919050565b60006020820190508181036000830152611c2c81611bf0565b905091905056fea26469706673582212207972836f8995d7de6324c3fd5cffb8a2781464eb27fb8449bf15fa536137f0ae64736f6c634300081c0033",
  "linkReferences": {},
  "deployedLinkReferences": {}
}