{
  "_format": "hh-sol-artifact-1",
  "contractName": "Marygoround",
  "sourceName": "contracts/Marygoround.sol",
  "abi": [
    {
      "inputs": [],
      "stateMutability": "nonpayable",
      "type": "constructor"
    },
    {
      "anonymous": false,
      "inputs": [
        {
          "indexed": false,
          "internalType": "address",
          "name": "_to",
          "type": "address"
        },
        {
          "indexed": false,
          "internalType": "uint256",
          "name": "_amount",
          "type": "uint256"
        }
      ],
      "name": "GivenLoan",
      "type": "event"
    },
    {
      "anonymous": false,
      "inputs": [
        {
          "indexed": true,
          "internalType": "address",
          "name": "member",
          "type": "address"
        },
        {
          "indexed": false,
          "internalType": "uint256",
          "name": "amountPaid",
          "type": "uint256"
        }
      ],
      "name": "LoanRepaid",
      "type": "event"
    },
    {
      "anonymous": false,
      "inputs": [
        {
          "indexed": false,
          "internalType": "address",
          "name": "_member",
          "type": "address"
        }
      ],
      "name": "MemberAdded",
      "type": "event"
    },
    {
      "anonymous": false,
      "inputs": [
        {
          "indexed": true,
          "internalType": "address",
          "name": "member",
          "type": "address"
        }
      ],
      "name": "MemberRemoved",
      "type": "event"
    },
    {
      "anonymous": false,
      "inputs": [
        {
          "indexed": true,
          "internalType": "address",
          "name": "_to",
          "type": "address"
        },
        {
          "indexed": false,
          "internalType": "uint256",
          "name": "amount",
          "type": "uint256"
        }
      ],
      "name": "Payoutmade",
      "type": "event"
    },
    {
      "anonymous": false,
      "inputs": [
        {
          "indexed": true,
          "internalType": "address",
          "name": "_from",
          "type": "address"
        },
        {
          "indexed": false,
          "internalType": "uint256",
          "name": "_amount",
          "type": "uint256"
        }
      ],
      "name": "SaveAdded",
      "type": "event"
    },
    {
      "inputs": [],
      "name": "AllSavingsAndLoans",
      "outputs": [
        {
          "internalType": "uint256",
          "name": "totalSaved",
          "type": "uint256"
        },
        {
          "internalType": "uint256",
          "name": "totalLoanedOut",
          "type": "uint256"
        },
        {
          "internalType": "uint256",
          "name": "availableFunds",
          "type": "uint256"
        }
      ],
      "stateMutability": "view",
      "type": "function"
    },
    {
      "inputs": [],
      "name": "MySavingsAndLoan",
      "outputs": [
        {
          "internalType": "uint256",
          "name": "savings",
          "type": "uint256"
        },
        {
          "internalType": "uint256",
          "name": "loan",
          "type": "uint256"
        },
        {
          "internalType": "uint256",
          "name": "lastLoanTime",
          "type": "uint256"
        }
      ],
      "stateMutability": "view",
      "type": "function"
    },
    {
      "inputs": [
        {
          "internalType": "address",
          "name": "_member",
          "type": "address"
        }
      ],
      "name": "addMember",
      "outputs": [],
      "stateMutability": "nonpayable",
      "type": "function"
    },
    {
      "inputs": [],
      "name": "contractStartTime",
      "outputs": [
        {
          "internalType": "uint256",
          "name": "",
          "type": "uint256"
        }
      ],
      "stateMutability": "view",
      "type": "function"
    },
    {
      "inputs": [],
      "name": "distributeFunds",
      "outputs": [],
      "stateMutability": "nonpayable",
      "type": "function"
    },
    {
      "inputs": [
        {
          "internalType": "uint256",
          "name": "",
          "type": "uint256"
        }
      ],
      "name": "memberList",
      "outputs": [
        {
          "internalType": "address",
          "name": "",
          "type": "address"
        }
      ],
      "stateMutability": "view",
      "type": "function"
    },
    {
      "inputs": [
        {
          "internalType": "address",
          "name": "",
          "type": "address"
        }
      ],
      "name": "members",
      "outputs": [
        {
          "internalType": "bool",
          "name": "isMember",
          "type": "bool"
        },
        {
          "internalType": "uint256",
          "name": "totalSavings",
          "type": "uint256"
        },
        {
          "internalType": "uint256",
          "name": "loanAmount",
          "type": "uint256"
        },
        {
          "internalType": "uint256",
          "name": "lastLoanTimestamp",
          "type": "uint256"
        }
      ],
      "stateMutability": "view",
      "type": "function"
    },
    {
      "inputs": [],
      "name": "owner",
      "outputs": [
        {
          "internalType": "address",
          "name": "",
          "type": "address"
        }
      ],
      "stateMutability": "view",
      "type": "function"
    },
    {
      "inputs": [],
      "name": "repayLoan",
      "outputs": [],
      "stateMutability": "payable",
      "type": "function"
    },
    {
      "inputs": [
        {
          "internalType": "uint256",
          "name": "_amount",
          "type": "uint256"
        }
      ],
      "name": "requestLoan",
      "outputs": [],
      "stateMutability": "nonpayable",
      "type": "function"
    },
    {
      "inputs": [],
      "name": "save",
      "outputs": [],
      "stateMutability": "payable",
      "type": "function"
    },
    {
      "inputs": [],
      "name": "totalLoaned",
      "outputs": [
        {
          "internalType": "uint256",
          "name": "",
          "type": "uint256"
        }
      ],
      "stateMutability": "view",
      "type": "function"
    },
    {
      "inputs": [],
      "name": "totalSavings",
      "outputs": [
        {
          "internalType": "uint256",
          "name": "",
          "type": "uint256"
        }
      ],
      "stateMutability": "view",
      "type": "function"
    }
  ],
  "bytecode": "0x6080604052348015600f57600080fd5b50336000806101000a81548173ffffffffffffffffffffffffffffffffffffffff021916908373ffffffffffffffffffffffffffffffffffffffff16021790555042600181905550611d5d806100666000396000f3fe6080604052600436106100c25760003560e01c80638d5d34291161007f578063b307fc6d11610059578063b307fc6d1461022a578063bdbc894114610267578063ca6d56dc14610294578063f966ade7146102bd576100c2565b80638d5d3429146101ab5780638da5cb5b146101d45780639bf42b3f146101ff576100c2565b806308ae4b0c146100c75780630c3d5157146101075780633a6a4d2e146101325780633a838c2a1461014957806342dad49e14610174578063753eb4921461017e575b600080fd5b3480156100d357600080fd5b506100ee60048036038101906100e991906113f6565b6102c7565b6040516100fe9493929190611457565b60405180910390f35b34801561011357600080fd5b5061011c610304565b604051610129919061149c565b60405180910390f35b34801561013e57600080fd5b5061014761030a565b005b34801561015557600080fd5b5061015e610668565b60405161016b919061149c565b60405180910390f35b61017c61066e565b005b34801561018a57600080fd5b50610193610802565b6040516101a2939291906114b7565b60405180910390f35b3480156101b757600080fd5b506101d260048036038101906101cd919061151a565b6108b7565b005b3480156101e057600080fd5b506101e9610c50565b6040516101f69190611556565b60405180910390f35b34801561020b57600080fd5b50610214610c74565b604051610221919061149c565b60405180910390f35b34801561023657600080fd5b50610251600480360381019061024c919061151a565b610c7a565b60405161025e9190611556565b60405180910390f35b34801561027357600080fd5b5061027c610cb9565b60405161028b939291906114b7565b60405180910390f35b3480156102a057600080fd5b506102bb60048036038101906102b691906113f6565b610dab565b005b6102c5610fc1565b005b60046020528060005260406000206000915090508060000160009054906101000a900460ff16908060010154908060020154908060030154905084565b60015481565b600460003373ffffffffffffffffffffffffffffffffffffffff1673ffffffffffffffffffffffffffffffffffffffff16815260200190815260200160002060000160009054906101000a900460ff16610399576040517f08c379a0000000000000000000000000000000000000000000000000000000008152600401610390906115f4565b60405180910390fd5b6301e133806001546103ab9190611643565b4210156103ed576040517f08c379a00000000000000000000000000000000000000000000000000000000081526004016103e4906116c3565b60405180910390fd5b600060025411610432576040517f08c379a00000000000000000000000000000000000000000000000000000000081526004016104299061172f565b60405180910390fd5b60004790506000806002548311156104555760025483610452919061174f565b91505b826002541115610470578260025461046d919061174f565b90505b60005b60058054905081101561065b5760006005828154811061049657610495611783565b5b9060005260206000200160009054906101000a900473ffffffffffffffffffffffffffffffffffffffff169050600460008273ffffffffffffffffffffffffffffffffffffffff1673ffffffffffffffffffffffffffffffffffffffff16815260200190815260200160002060000160009054906101000a900460ff161561064d57600060025486600460008573ffffffffffffffffffffffffffffffffffffffff1673ffffffffffffffffffffffffffffffffffffffff1681526020019081526020016000206001015461056b91906117b2565b6105759190611823565b905060008411801561058c57506000600580549050115b156105b6576000600580549050856105a49190611823565b905080826105b2919061174f565b9150505b8173ffffffffffffffffffffffffffffffffffffffff166108fc829081150290604051600060405180830381858888f193505050501580156105fc573d6000803e3d6000fd5b508173ffffffffffffffffffffffffffffffffffffffff167f39d592bc2df66f9375e4306ed701d5063bc6f0db199a7f8563d51f53bd7e1c4a82604051610643919061149c565b60405180910390a2505b508080600101915050610473565b5042600181905550505050565b60035481565b600460003373ffffffffffffffffffffffffffffffffffffffff1673ffffffffffffffffffffffffffffffffffffffff16815260200190815260200160002060000160009054906101000a900460ff166106fd576040517f08c379a00000000000000000000000000000000000000000000000000000000081526004016106f4906115f4565b60405180910390fd5b60003411610740576040517f08c379a0000000000000000000000000000000000000000000000000000000008152600401610737906118a0565b60405180910390fd5b34600460003373ffffffffffffffffffffffffffffffffffffffff1673ffffffffffffffffffffffffffffffffffffffff16815260200190815260200160002060010160008282546107929190611643565b9250508190555034600260008282546107ab9190611643565b925050819055503373ffffffffffffffffffffffffffffffffffffffff167f7859c92cec196429f3d0509ce9c3179eba1b85adac2a2dd1bef58b0c1d430994346040516107f8919061149c565b60405180910390a2565b6000806000600460003373ffffffffffffffffffffffffffffffffffffffff1673ffffffffffffffffffffffffffffffffffffffff16815260200190815260200160002060000160009054906101000a900460ff16610896576040517f08c379a000000000000000000000000000000000000000000000000000000000815260040161088d906115f4565b60405180910390fd5b6002546003546003546002546108ac919061174f565b925092509250909192565b600460003373ffffffffffffffffffffffffffffffffffffffff1673ffffffffffffffffffffffffffffffffffffffff16815260200190815260200160002060000160009054906101000a900460ff16610946576040517f08c379a000000000000000000000000000000000000000000000000000000000815260040161093d906115f4565b60405180910390fd5b6000600460003373ffffffffffffffffffffffffffffffffffffffff1673ffffffffffffffffffffffffffffffffffffffff16815260200190815260200160002060020154146109cb576040517f08c379a00000000000000000000000000000000000000000000000000000000081526004016109c290611932565b60405180910390fd5b6000600460003373ffffffffffffffffffffffffffffffffffffffff1673ffffffffffffffffffffffffffffffffffffffff1681526020019081526020016000206001015411610a50576040517f08c379a0000000000000000000000000000000000000000000000000000000008152600401610a479061199e565b60405180910390fd5b6002600460003373ffffffffffffffffffffffffffffffffffffffff1673ffffffffffffffffffffffffffffffffffffffff16815260200190815260200160002060010154610a9f91906117b2565b811115610ae1576040517f08c379a0000000000000000000000000000000000000000000000000000000008152600401610ad890611a0a565b60405180910390fd5b600254811115610b26576040517f08c379a0000000000000000000000000000000000000000000000000000000008152600401610b1d90611a9c565b60405180910390fd5b80600460003373ffffffffffffffffffffffffffffffffffffffff1673ffffffffffffffffffffffffffffffffffffffff1681526020019081526020016000206002018190555042600460003373ffffffffffffffffffffffffffffffffffffffff1673ffffffffffffffffffffffffffffffffffffffff168152602001908152602001600020600301819055508060036000828254610bc69190611643565b925050819055503373ffffffffffffffffffffffffffffffffffffffff166108fc829081150290604051600060405180830381858888f19350505050158015610c13573d6000803e3d6000fd5b507f9a62cf908b3c511c4b6d312a1bdc30574df2c858a52de6470d3ccf85f7016eca3382604051610c45929190611abc565b60405180910390a150565b60008054906101000a900473ffffffffffffffffffffffffffffffffffffffff1681565b60025481565b60058181548110610c8a57600080fd5b906000526020600020016000915054906101000a900473ffffffffffffffffffffffffffffffffffffffff1681565b6000806000600460003373ffffffffffffffffffffffffffffffffffffffff1673ffffffffffffffffffffffffffffffffffffffff16815260200190815260200160002060000160009054906101000a900460ff16610d4d576040517f08c379a0000000000000000000000000000000000000000000000000000000008152600401610d44906115f4565b60405180910390fd5b6000600460003373ffffffffffffffffffffffffffffffffffffffff1673ffffffffffffffffffffffffffffffffffffffff168152602001908152602001600020905080600101548160020154826003015493509350935050909192565b60008054906101000a900473ffffffffffffffffffffffffffffffffffffffff1673ffffffffffffffffffffffffffffffffffffffff163373ffffffffffffffffffffffffffffffffffffffff1614610e39576040517f08c379a0000000000000000000000000000000000000000000000000000000008152600401610e3090611b57565b60405180910390fd5b600460008273ffffffffffffffffffffffffffffffffffffffff1673ffffffffffffffffffffffffffffffffffffffff16815260200190815260200160002060000160009054906101000a900460ff1615610ec9576040517f08c379a0000000000000000000000000000000000000000000000000000000008152600401610ec090611bc3565b60405180910390fd5b6001600460008373ffffffffffffffffffffffffffffffffffffffff1673ffffffffffffffffffffffffffffffffffffffff16815260200190815260200160002060000160006101000a81548160ff0219169083151502179055506005819080600181540180825580915050600190039060005260206000200160009091909190916101000a81548173ffffffffffffffffffffffffffffffffffffffff021916908373ffffffffffffffffffffffffffffffffffffffff1602179055507fb251eb052afc73ffd02ffe85ad79990a8b3fed60d76dbc2fa2fdd7123dffd91481604051610fb69190611556565b60405180910390a150565b600460003373ffffffffffffffffffffffffffffffffffffffff1673ffffffffffffffffffffffffffffffffffffffff16815260200190815260200160002060000160009054906101000a900460ff16611050576040517f08c379a0000000000000000000000000000000000000000000000000000000008152600401611047906115f4565b60405180910390fd5b6000600460003373ffffffffffffffffffffffffffffffffffffffff1673ffffffffffffffffffffffffffffffffffffffff168152602001908152602001600020905060008160020154116110da576040517f08c379a00000000000000000000000000000000000000000000000000000000081526004016110d190611c2f565b60405180910390fd5b600062278d008260030154426110f0919061174f565b6110fa9190611823565b90506000600c821015611162576001821161111857600a905061115d565b600182118015611129575060028211155b15611137576014905061115c565b600282118015611148575060038211155b1561115657601e905061115b565b603290505b5b5b611167565b606490505b82600201547fffffffffffffffffffffffffffffffffffffffffffffffffffffffffffffffff6111979190611823565b8160646111a49190611643565b11156111e5576040517f08c379a00000000000000000000000000000000000000000000000000000000081526004016111dc90611c9b565b60405180910390fd5b600060648260646111f69190611643565b856002015461120591906117b2565b61120f9190611823565b905080341015611254576040517f08c379a000000000000000000000000000000000000000000000000000000000815260040161124b90611d07565b60405180910390fd5b83600201546003600082825461126a919061174f565b9250508190555060008460020181905550600084600301819055503373ffffffffffffffffffffffffffffffffffffffff167fc200a1f31dd659e356e0f112c82558e25f49f7b0f84438691cd96f5cb3558823826040516112cb919061149c565b60405180910390a2600c831061138d57600460003373ffffffffffffffffffffffffffffffffffffffff1673ffffffffffffffffffffffffffffffffffffffff168152602001908152602001600020600080820160006101000a81549060ff021916905560018201600090556002820160009055600382016000905550503373ffffffffffffffffffffffffffffffffffffffff167f6e76fb4c77256006d9c38ec7d82b45a8c8f3c27b1d6766fffc42dfb8de68449260405160405180910390a25b50505050565b600080fd5b600073ffffffffffffffffffffffffffffffffffffffff82169050919050565b60006113c382611398565b9050919050565b6113d3816113b8565b81146113de57600080fd5b50565b6000813590506113f0816113ca565b92915050565b60006020828403121561140c5761140b611393565b5b600061141a848285016113e1565b91505092915050565b60008115159050919050565b61143881611423565b82525050565b6000819050919050565b6114518161143e565b82525050565b600060808201905061146c600083018761142f565b6114796020830186611448565b6114866040830185611448565b6114936060830184611448565b95945050505050565b60006020820190506114b16000830184611448565b92915050565b60006060820190506114cc6000830186611448565b6114d96020830185611448565b6114e66040830184611448565b949350505050565b6114f78161143e565b811461150257600080fd5b50565b600081359050611514816114ee565b92915050565b6000602082840312156115305761152f611393565b5b600061153e84828501611505565b91505092915050565b611550816113b8565b82525050565b600060208201905061156b6000830184611547565b92915050565b600082825260208201905092915050565b7f4f6e6c79206d656d6265722063616e20706572666f726d20746869732061637460008201527f696f6e0000000000000000000000000000000000000000000000000000000000602082015250565b60006115de602383611571565b91506115e982611582565b604082019050919050565b6000602082019050818103600083015261160d816115d1565b9050919050565b7f4e487b7100000000000000000000000000000000000000000000000000000000600052601160045260246000fd5b600061164e8261143e565b91506116598361143e565b925082820190508082111561167157611670611614565b5b92915050565b7f59656172206e6f7420636f6d706c657465640000000000000000000000000000600082015250565b60006116ad601283611571565b91506116b882611677565b602082019050919050565b600060208201905081810360008301526116dc816116a0565b9050919050565b7f4e6f20736176696e677320746f20646973747269627574650000000000000000600082015250565b6000611719601883611571565b9150611724826116e3565b602082019050919050565b600060208201905081810360008301526117488161170c565b9050919050565b600061175a8261143e565b91506117658361143e565b925082820390508181111561177d5761177c611614565b5b92915050565b7f4e487b7100000000000000000000000000000000000000000000000000000000600052603260045260246000fd5b60006117bd8261143e565b91506117c88361143e565b92508282026117d68161143e565b915082820484148315176117ed576117ec611614565b5b5092915050565b7f4e487b7100000000000000000000000000000000000000000000000000000000600052601260045260246000fd5b600061182e8261143e565b91506118398361143e565b925082611849576118486117f4565b5b828204905092915050565b7f4d757374206465706f73697420736f6d65204554480000000000000000000000600082015250565b600061188a601583611571565b915061189582611854565b602082019050919050565b600060208201905081810360008301526118b98161187d565b9050919050565b7f4578697374696e67206c6f616e206d757374206265207265706169642066697260008201527f7374000000000000000000000000000000000000000000000000000000000000602082015250565b600061191c602283611571565b9150611927826118c0565b604082019050919050565b6000602082019050818103600083015261194b8161190f565b9050919050565b7f4e6f20736176696e677320617661696c61626c65000000000000000000000000600082015250565b6000611988601483611571565b915061199382611952565b602082019050919050565b600060208201905081810360008301526119b78161197b565b9050919050565b7f4c6f616e206578636565647320616c6c6f776564206c696d6974000000000000600082015250565b60006119f4601a83611571565b91506119ff826119be565b602082019050919050565b60006020820190508181036000830152611a23816119e7565b9050919050565b7f4e6f2073756666696369656e7420616d6f756e7420696e20746865206163636f60008201527f756e742063757272656e746c7900000000000000000000000000000000000000602082015250565b6000611a86602d83611571565b9150611a9182611a2a565b604082019050919050565b60006020820190508181036000830152611ab581611a79565b9050919050565b6000604082019050611ad16000830185611547565b611ade6020830184611448565b9392505050565b7f4f6e6c79206f776e65722063616e20706572666f726d2074686973206163746960008201527f6f6e000000000000000000000000000000000000000000000000000000000000602082015250565b6000611b41602283611571565b9150611b4c82611ae5565b604082019050919050565b60006020820190508181036000830152611b7081611b34565b9050919050565b7f4d656d62657220616c7265616479206578697374000000000000000000000000600082015250565b6000611bad601483611571565b9150611bb882611b77565b602082019050919050565b60006020820190508181036000830152611bdc81611ba0565b9050919050565b7f4e6f20616374697665206c6f616e000000000000000000000000000000000000600082015250565b6000611c19600e83611571565b9150611c2482611be3565b602082019050919050565b60006020820190508181036000830152611c4881611c0c565b9050919050565b7f4f766572666c6f77207269736b00000000000000000000000000000000000000600082015250565b6000611c85600d83611571565b9150611c9082611c4f565b602082019050919050565b60006020820190508181036000830152611cb481611c78565b9050919050565b7f496e73756666696369656e742072657061796d656e7420616d6f756e74000000600082015250565b6000611cf1601d83611571565b9150611cfc82611cbb565b602082019050919050565b60006020820190508181036000830152611d2081611ce4565b905091905056fea26469706673582212204e7928884826eefe66647d879777f4a524229a1973e86c3d86ce056358f4c34564736f6c634300081c0033",
  "linkReferences": {},
  "deployedLinkReferences": {}
}